:100000000C942A000C9434000C9434000C943400AA
:100010000C9434000C9434000C9434000C94340090
:100020000C9434000C9434000C9434000C94340080
:100030000C9434000C9434000C9434000C94340070
:100040000C9434000C9434000C9434000C94340060
:100050000C94340011241FBECFE5D8E0DEBFCDBF25
:100060000E9454030C9482030C940000DF93CF93FE
:100070000F92CDB7DEB781E0898389810F90CF9150
:10008000DF910895DF93CF93CDB7DEB728970FB6F2
:10009000F894DEBF0FBECDBF8C836D834E8381E0AD
:1000A0008B838C81843008F0D0C08D81883008F03B
:1000B000CCC08E81823008F0C8C08C81282F30E0FF
:1000C00038872F836F8178856130710509F441C0CD
:1000D0008F8198858230910534F42F8138852115E0
:1000E000310571F0B0C06F8178856230710509F417
:1000F00059C08F8198858330910509F47CC0A3C0D5
:10010000AAE3B0E0EAE3F0E08081482F8D81282F58
:1001100030E081E090E002C0880F991F2A95E2F755
:10012000809584238C93AAE3B0E0EAE3F0E0808139
:10013000482F8E81282F30E08D81882F90E0B901E3
:1001400002C0660F771F8A95E2F7CB01842B8C9350
:100150007AC0A7E3B0E0E7E3F0E08081482F8D812B
:10016000282F30E081E090E002C0880F991F2A9587
:10017000E2F7809584238C93A7E3B0E0E7E3F0E017
:100180008081482F8E81282F30E08D81882F90E04C
:10019000B90102C0660F771F8A95E2F7CB01842B65
:1001A0008C9351C0A4E3B0E0E4E3F0E08081482FF9
:1001B0008D81282F30E081E090E002C0880F991FE8
:1001C0002A95E2F7809584238C93A4E3B0E0E4E3DE
:1001D000F0E08081482F8E81282F30E08D81882F9C
:1001E00090E0B90102C0660F771F8A95E2F7CB0154
:1001F000842B8C9328C0A1E3B0E0E1E3F0E08081A0
:10020000482F8D81282F30E081E090E002C0880FD8
:10021000991F2A95E2F7809584238C93A1E3B0E09F
:10022000E1E3F0E08081482F8E81282F30E08D813E
:10023000882F90E0B90102C0660F771F8A95E2F718
:10024000CB01842B8C931A8202C082E089838B813C
:1002500028960FB6F894DEBF0FBECDBFCF91DF91C9
:100260000895DF93CF9300D000D000D0CDB7DEB794
:100270008A836B834C8381E089838A81843008F090
:10028000DBC08B81883008F0D7C08C81823008F0C9
:10029000D3C08A81282F30E03E832D838D819E81BB
:1002A0008130910509F443C02D813E812230310512
:1002B0002CF48D819E81009771F0BCC02D813E8110
:1002C0002230310509F45FC08D819E818330910514
:1002D00009F485C0AFC08C818130A1F4ABE3B0E0FC
:1002E000EBE3F0E08081482F8B81282F30E081E024
:1002F00090E0022E02C0880F991F0A94E2F7842B27
:100300008C9398C0ABE3B0E0EBE3F0E08081482F42
:100310008B81282F30E081E090E0022E02C0880F10
:10032000991F0A94E2F7809584238C9383C08C8173
:100330008130A1F4A8E3B0E0E8E3F0E08081482F49
:100340008B81282F30E081E090E0022E02C0880FE0
:10035000991F0A94E2F7842B8C936CC0A8E3B0E059
:10036000E8E3F0E08081482F8B81282F30E081E0A6
:1003700090E0022E02C0880F991F0A94E2F7809540
:1003800084238C9357C08C818130A1F4A5E3B0E025
:10039000E5E3F0E08081482F8B81282F30E081E079
:1003A00090E0022E02C0880F991F0A94E2F7842B76
:1003B0008C9340C0A5E3B0E0E5E3F0E08081482FF6
:1003C0008B81282F30E081E090E0022E02C0880F60
:1003D000991F0A94E2F7809584238C932BC08C811B
:1003E0008130A1F4A2E3B0E0E2E3F0E08081482FA5
:1003F0008B81282F30E081E090E0022E02C0880F30
:10040000991F0A94E2F7842B8C9314C0A2E3B0E006
:10041000E2E3F0E08081482F8B81282F30E081E0FB
:1004200090E0022E02C0880F991F0A94E2F780958F
:1004300084238C93198202C082E089838981269665
:100440000FB6F894DEBF0FBECDBFCF91DF910895F8
:10045000DF93CF9300D000D00F92CDB7DEB78A8361
:100460006B8381E089838A81843008F074C08B813A
:10047000883008F070C08A81282F30E03D832C83BB
:100480008C819D818130910549F12C813D81223003
:1004900031052CF48C819D81009761F05AC02C812C
:1004A0003D812230310571F18C819D818330910530
:1004B000E9F14FC0ABE3B0E0EBE3F0E08081482F1F
:1004C0008B81282F30E081E090E0022E02C0880F5F
:1004D000991F0A94E2F784278C933BC0A8E3B0E00D
:1004E000E8E3F0E08081482F8B81282F30E081E025
:1004F00090E0022E02C0880F991F0A94E2F7842729
:100500008C9327C0A5E3B0E0E5E3F0E08081482FBD
:100510008B81282F30E081E090E0022E02C0880F0E
:10052000991F0A94E2F784278C9313C0A2E3B0E0EA
:10053000E2E3F0E08081482F8B81282F30E081E0DA
:1005400090E0022E02C0880F991F0A94E2F78427D8
:100550008C93198202C082E0898389810F900F9069
:100560000F900F900F90CF91DF910895DF93CF936D
:10057000CDB7DEB727970FB6F894DEBF0FBECDBF5D
:100580008A836B835D834C8381E089838C819D8129
:10059000009709F47DC08A81843008F076C08B8191
:1005A000883008F072C08A81282F30E03F832E8384
:1005B0004E815F814130510559F18E819F8182309A
:1005C000910534F42E813F812115310569F05BC01E
:1005D0004E815F814230510579F18E819F81833058
:1005E000910509F43DC04FC0E9E3F0E08081282F78
:1005F00030E08B81882F90E0A90102C05595479586
:100600008A95E2F7CA018170EC81FD8180833BC04D
:10061000E6E3F0E08081282F30E08B81882F90E0A6
:10062000A90102C0559547958A95E2F7CA018170E4
:10063000EC81FD81808327C0E3E3F0E08081282FF7
:1006400030E08B81882F90E0A90102C05595479535
:100650008A95E2F7CA018170EC81FD81808313C025
:10066000E0E3F0E08081282F30E08B81882F90E05C
:10067000A90102C0559547958A95E2F7CA01817094
:10068000EC81FD818083198205C082E0898302C0EC
:1006900083E08983898127960FB6F894DEBF0FBE69
:1006A000CDBFCF91DF910895DF93CF930F92CDB758
:1006B000DEB782E064E040E00E94420082E064E055
:1006C00040E00E94310182E067E041E00E94420088
:1006D00082E064E09E012F5F3F4FA9010E94B602B5
:1006E0008981813031F482E067E041E00E9431018C
:1006F000EFCF8981882361F782E067E040E00E94C4
:080700003101E6CFF894FFCFB0
:00000001FF
